{
  "contractName": "HealthPass",
  "abi": [
    {
      "inputs": [],
      "stateMutability": "nonpayable",
      "type": "constructor"
    },
    {
      "anonymous": false,
      "inputs": [
        {
          "indexed": false,
          "internalType": "uint256",
          "name": "userId",
          "type": "uint256"
        },
        {
          "indexed": false,
          "internalType": "address",
          "name": "client",
          "type": "address"
        },
        {
          "indexed": false,
          "internalType": "string",
          "name": "name",
          "type": "string"
        },
        {
          "indexed": false,
          "internalType": "string",
          "name": "passNumber",
          "type": "string"
        }
      ],
      "name": "Registered",
      "type": "event"
    },
    {
      "anonymous": false,
      "inputs": [
        {
          "indexed": false,
          "internalType": "uint256",
          "name": "userId",
          "type": "uint256"
        },
        {
          "indexed": false,
          "internalType": "address",
          "name": "client",
          "type": "address"
        },
        {
          "indexed": false,
          "internalType": "string",
          "name": "name",
          "type": "string"
        },
        {
          "indexed": false,
          "internalType": "string",
          "name": "passNumber",
          "type": "string"
        },
        {
          "indexed": false,
          "internalType": "string",
          "name": "vaccineName",
          "type": "string"
        },
        {
          "indexed": false,
          "internalType": "bool",
          "name": "vaccinated",
          "type": "bool"
        }
      ],
      "name": "Updated",
      "type": "event"
    },
    {
      "anonymous": false,
      "inputs": [
        {
          "indexed": false,
          "internalType": "address",
          "name": "client",
          "type": "address"
        },
        {
          "indexed": false,
          "internalType": "string",
          "name": "name",
          "type": "string"
        },
        {
          "indexed": false,
          "internalType": "string",
          "name": "passNumber",
          "type": "string"
        }
      ],
      "name": "healthPassToAirport",
      "type": "event"
    },
    {
      "anonymous": false,
      "inputs": [
        {
          "indexed": false,
          "internalType": "address",
          "name": "client",
          "type": "address"
        },
        {
          "indexed": false,
          "internalType": "string",
          "name": "name",
          "type": "string"
        },
        {
          "indexed": false,
          "internalType": "string",
          "name": "passNumber",
          "type": "string"
        }
      ],
      "name": "healthPassToMall",
      "type": "event"
    },
    {
      "anonymous": false,
      "inputs": [
        {
          "indexed": false,
          "internalType": "address",
          "name": "client",
          "type": "address"
        },
        {
          "indexed": false,
          "internalType": "string",
          "name": "name",
          "type": "string"
        },
        {
          "indexed": false,
          "internalType": "string",
          "name": "passNumber",
          "type": "string"
        }
      ],
      "name": "healthPassToWorkplace",
      "type": "event"
    },
    {
      "inputs": [],
      "name": "healthAuthority",
      "outputs": [
        {
          "internalType": "address",
          "name": "",
          "type": "address"
        }
      ],
      "stateMutability": "view",
      "type": "function",
      "constant": true
    },
    {
      "inputs": [],
      "name": "totalNumber",
      "outputs": [
        {
          "internalType": "uint256",
          "name": "",
          "type": "uint256"
        }
      ],
      "stateMutability": "view",
      "type": "function",
      "constant": true
    },
    {
      "inputs": [
        {
          "internalType": "uint256",
          "name": "",
          "type": "uint256"
        }
      ],
      "name": "users",
      "outputs": [
        {
          "internalType": "uint256",
          "name": "userId",
          "type": "uint256"
        },
        {
          "internalType": "address",
          "name": "client",
          "type": "address"
        },
        {
          "internalType": "string",
          "name": "name",
          "type": "string"
        },
        {
          "internalType": "string",
          "name": "passNumber",
          "type": "string"
        },
        {
          "internalType": "string",
          "name": "vaccineName",
          "type": "string"
        },
        {
          "internalType": "bool",
          "name": "vaccinated",
          "type": "bool"
        },
        {
          "internalType": "bool",
          "name": "workplacePermitted",
          "type": "bool"
        },
        {
          "internalType": "bool",
          "name": "mallPermitted",
          "type": "bool"
        },
        {
          "internalType": "bool",
          "name": "airportPermitted",
          "type": "bool"
        }
      ],
      "stateMutability": "view",
      "type": "function",
      "constant": true
    },
    {
      "inputs": [
        {
          "internalType": "string",
          "name": "_name",
          "type": "string"
        },
        {
          "internalType": "string",
          "name": "_passNumber",
          "type": "string"
        }
      ],
      "name": "registerUser",
      "outputs": [],
      "stateMutability": "nonpayable",
      "type": "function"
    },
    {
      "inputs": [
        {
          "internalType": "string",
          "name": "_vaccineName",
          "type": "string"
        },
        {
          "internalType": "uint256",
          "name": "userId",
          "type": "uint256"
        }
      ],
      "name": "updateUser",
      "outputs": [],
      "stateMutability": "nonpayable",
      "type": "function"
    },
    {
      "inputs": [
        {
          "internalType": "uint256",
          "name": "userId",
          "type": "uint256"
        }
      ],
      "name": "obtainPassForWorkplace",
      "outputs": [],
      "stateMutability": "nonpayable",
      "type": "function"
    },
    {
      "inputs": [
        {
          "internalType": "uint256",
          "name": "userId",
          "type": "uint256"
        }
      ],
      "name": "obtainPassForMall",
      "outputs": [],
      "stateMutability": "nonpayable",
      "type": "function"
    },
    {
      "inputs": [
        {
          "internalType": "uint256",
          "name": "userId",
          "type": "uint256"
        }
      ],
      "name": "obtainPassForAirport",
      "outputs": [],
      "stateMutability": "nonpayable",
      "type": "function"
    }
  ],
  "bytecode": "0x6080604052600060025534801561001557600080fd5b50336000806101000a81548173ffffffffffffffffffffffffffffffffffffffff021916908373ffffffffffffffffffffffffffffffffffffffff16021790555061197f806100656000396000f3fe608060405234801561001057600080fd5b50600436106100885760003560e01c80637e0cbaa01161005b5780637e0cbaa014610499578063c0daddfd146104c7578063cb4f88c3146104e5578063ee8a96de1461051957610088565b80631d2e4afd1461008d5780632bf9866f146101df5780632ffdc49b146102a4578063365b98b2146102d2575b600080fd5b6101dd600480360360408110156100a357600080fd5b81019080803590602001906401000000008111156100c057600080fd5b8201836020820111156100d257600080fd5b803590602001918460018302840111640100000000831117156100f457600080fd5b91908080601f016020809104026020016040519081016040528093929190818152602001838380828437600081840152601f19601f8201169050808301925050505050505091929192908035906020019064010000000081111561015757600080fd5b82018360208201111561016957600080fd5b8035906020019184600183028401116401000000008311171561018b57600080fd5b91908080601f016020809104026020016040519081016040528093929190818152602001838380828437600081840152601f19601f820116905080830192505050505050509192919290505050610547565b005b6102a2600480360360408110156101f557600080fd5b810190808035906020019064010000000081111561021257600080fd5b82018360208201111561022457600080fd5b8035906020019184600183028401116401000000008311171561024657600080fd5b91908080601f016020809104026020016040519081016040528093929190818152602001838380828437600081840152601f19601f820116905080830192505050505050509192919290803590602001909291905050506109af565b005b6102d0600480360360208110156102ba57600080fd5b8101908080359060200190929190505050610d68565b005b6102fe600480360360208110156102e857600080fd5b810190808035906020019092919050505061102b565b604051808a81526020018973ffffffffffffffffffffffffffffffffffffffff168152602001806020018060200180602001881515815260200187151581526020018615158152602001851515815260200184810384528b818151815260200191508051906020019080838360005b8381101561038857808201518184015260208101905061036d565b50505050905090810190601f1680156103b55780820380516001836020036101000a031916815260200191505b5084810383528a818151815260200191508051906020019080838360005b838110156103ee5780820151818401526020810190506103d3565b50505050905090810190601f16801561041b5780820380516001836020036101000a031916815260200191505b50848103825289818151815260200191508051906020019080838360005b83811015610454578082015181840152602081019050610439565b50505050905090810190601f1680156104815780820380516001836020036101000a031916815260200191505b509c5050505050505050505050505060405180910390f35b6104c5600480360360208110156104af57600080fd5b8101908080359060200190929190505050611295565b005b6104cf611558565b6040518082815260200191505060405180910390f35b6104ed61155e565b604051808273ffffffffffffffffffffffffffffffffffffffff16815260200191505060405180910390f35b6105456004803603602081101561052f57600080fd5b8101908080359060200190929190505050611582565b005b8181600082905060008290506000825114156105cb576040517f08c379a000000000000000000000000000000000000000000000000000000000815260040180806020018281038252601d8152602001807f46756c6c206e616d652073686f756c642062652073706563696669656400000081525060200191505060405180910390fd5b600081511415610626576040517f08c379a00000000000000000000000000000000000000000000000000000000081526004018080602001828103825260238152602001806118f16023913960400191505060405180910390fd5b60005b6002548110156106af576001600082815260200190815260200160002060010160009054906101000a900473ffffffffffffffffffffffffffffffffffffffff1673ffffffffffffffffffffffffffffffffffffffff163373ffffffffffffffffffffffffffffffffffffffff1614156106a257600080fd5b8080600101915050610629565b5060405180610120016040528060025481526020013373ffffffffffffffffffffffffffffffffffffffff168152602001878152602001868152602001604051806020016040528060008152508152602001600015158152602001600015158152602001600015158152602001600015158152506001600060025481526020019081526020016000206000820151816000015560208201518160010160006101000a81548173ffffffffffffffffffffffffffffffffffffffff021916908373ffffffffffffffffffffffffffffffffffffffff16021790555060408201518160020190805190602001906107a5929190611845565b5060608201518160030190805190602001906107c2929190611845565b5060808201518160040190805190602001906107df929190611845565b5060a08201518160050160006101000a81548160ff02191690831515021790555060c08201518160050160016101000a81548160ff02191690831515021790555060e08201518160050160026101000a81548160ff0219169083151502179055506101008201518160050160036101000a81548160ff0219169083151502179055509050506002600081548092919060010191905055507f90e97be4544071b6f860d83f22c5d553cc1222276174d8e5ac7cb86a45238ee0600254338888604051808581526020018473ffffffffffffffffffffffffffffffffffffffff1681526020018060200180602001838103835285818151815260200191508051906020019080838360005b838110156109035780820151818401526020810190506108e8565b50505050905090810190601f1680156109305780820380516001836020036101000a031916815260200191505b50838103825284818151815260200191508051906020019080838360005b8381101561096957808201518184015260208101905061094e565b50505050905090810190601f1680156109965780820380516001836020036101000a031916815260200191505b50965050505050505060405180910390a1505050505050565b60008054906101000a900473ffffffffffffffffffffffffffffffffffffffff1673ffffffffffffffffffffffffffffffffffffffff163373ffffffffffffffffffffffffffffffffffffffff1614610a53576040517f08c379a00000000000000000000000000000000000000000000000000000000081526004018080602001828103825260368152602001806119146036913960400191505060405180910390fd5b6000825111610aca576040517f08c379a000000000000000000000000000000000000000000000000000000000815260040180806020018281038252601a8152602001807f56616363696e652773206e616d6520697320726571756972656400000000000081525060200191505060405180910390fd5b600180600083815260200190815260200160002060050160006101000a81548160ff02191690831515021790555081600160008381526020019081526020016000206004019080519060200190610b22929190611845565b507f943869d5ec1f728548c7712604559c2f6b0654ed6f86712b21e58a01e0929e7b816001600084815260200190815260200160002060010160009054906101000a900473ffffffffffffffffffffffffffffffffffffffff166001600085815260200190815260200160002060020160016000868152602001908152602001600020600301866001604051808781526020018673ffffffffffffffffffffffffffffffffffffffff1681526020018060200180602001806020018515158152602001848103845288818154600181600116156101000203166002900481526020019150805460018160011615610100020316600290048015610c665780601f10610c3b57610100808354040283529160200191610c66565b820191906000526020600020905b815481529060010190602001808311610c4957829003601f168201915b5050848103835287818154600181600116156101000203166002900481526020019150805460018160011615610100020316600290048015610ce95780601f10610cbe57610100808354040283529160200191610ce9565b820191906000526020600020905b815481529060010190602001808311610ccc57829003601f168201915b5050848103825286818151815260200191508051906020019080838360005b83811015610d23578082015181840152602081019050610d08565b50505050905090810190601f168015610d505780820380516001836020036101000a031916815260200191505b50995050505050505050505060405180910390a15050565b60008054906101000a900473ffffffffffffffffffffffffffffffffffffffff1673ffffffffffffffffffffffffffffffffffffffff163373ffffffffffffffffffffffffffffffffffffffff1614610e0c576040517f08c379a00000000000000000000000000000000000000000000000000000000081526004018080602001828103825260368152602001806119146036913960400191505060405180910390fd5b6001600082815260200190815260200160002060050160009054906101000a900460ff16610e3957600080fd5b600180600083815260200190815260200160002060050160016101000a81548160ff0219169083151502179055507f33ffe59ec76d2d4f8656212e2b351f4cb77a13a935b2cd59fc5dc66cd909f7076001600083815260200190815260200160002060010160009054906101000a900473ffffffffffffffffffffffffffffffffffffffff166001600084815260200190815260200160002060020160016000858152602001908152602001600020600301604051808473ffffffffffffffffffffffffffffffffffffffff1681526020018060200180602001838103835285818154600181600116156101000203166002900481526020019150805460018160011615610100020316600290048015610f945780601f10610f6957610100808354040283529160200191610f94565b820191906000526020600020905b815481529060010190602001808311610f7757829003601f168201915b50508381038252848181546001816001161561010002031660029004815260200191508054600181600116156101000203166002900480156110175780601f10610fec57610100808354040283529160200191611017565b820191906000526020600020905b815481529060010190602001808311610ffa57829003601f168201915b50509550505050505060405180910390a150565b60016020528060005260406000206000915090508060000154908060010160009054906101000a900473ffffffffffffffffffffffffffffffffffffffff1690806002018054600181600116156101000203166002900480601f0160208091040260200160405190810160405280929190818152602001828054600181600116156101000203166002900480156111035780601f106110d857610100808354040283529160200191611103565b820191906000526020600020905b8154815290600101906020018083116110e657829003601f168201915b505050505090806003018054600181600116156101000203166002900480601f0160208091040260200160405190810160405280929190818152602001828054600181600116156101000203166002900480156111a15780601f10611176576101008083540402835291602001916111a1565b820191906000526020600020905b81548152906001019060200180831161118457829003601f168201915b505050505090806004018054600181600116156101000203166002900480601f01602080910402602001604051908101604052809291908181526020018280546001816001161561010002031660029004801561123f5780601f106112145761010080835404028352916020019161123f565b820191906000526020600020905b81548152906001019060200180831161122257829003601f168201915b5050505050908060050160009054906101000a900460ff16908060050160019054906101000a900460ff16908060050160029054906101000a900460ff16908060050160039054906101000a900460ff16905089565b60008054906101000a900473ffffffffffffffffffffffffffffffffffffffff1673ffffffffffffffffffffffffffffffffffffffff163373ffffffffffffffffffffffffffffffffffffffff1614611339576040517f08c379a00000000000000000000000000000000000000000000000000000000081526004018080602001828103825260368152602001806119146036913960400191505060405180910390fd5b6001600082815260200190815260200160002060050160009054906101000a900460ff1661136657600080fd5b600180600083815260200190815260200160002060050160036101000a81548160ff0219169083151502179055507f22b3cc0b1e271d9e036af86b11a6023eddc5baaa7337440d99c002e3444484536001600083815260200190815260200160002060010160009054906101000a900473ffffffffffffffffffffffffffffffffffffffff166001600084815260200190815260200160002060020160016000858152602001908152602001600020600301604051808473ffffffffffffffffffffffffffffffffffffffff16815260200180602001806020018381038352858181546001816001161561010002031660029004815260200191508054600181600116156101000203166002900480156114c15780601f10611496576101008083540402835291602001916114c1565b820191906000526020600020905b8154815290600101906020018083116114a457829003601f168201915b50508381038252848181546001816001161561010002031660029004815260200191508054600181600116156101000203166002900480156115445780601f1061151957610100808354040283529160200191611544565b820191906000526020600020905b81548152906001019060200180831161152757829003601f168201915b50509550505050505060405180910390a150565b60025481565b60008054906101000a900473ffffffffffffffffffffffffffffffffffffffff1681565b60008054906101000a900473ffffffffffffffffffffffffffffffffffffffff1673ffffffffffffffffffffffffffffffffffffffff163373ffffffffffffffffffffffffffffffffffffffff1614611626576040517f08c379a00000000000000000000000000000000000000000000000000000000081526004018080602001828103825260368152602001806119146036913960400191505060405180910390fd5b6001600082815260200190815260200160002060050160009054906101000a900460ff1661165357600080fd5b600180600083815260200190815260200160002060050160026101000a81548160ff0219169083151502179055507f17959d58275b5c4cd745f532709efba7d6deef0dc571aa357d00cf034f7cb3f16001600083815260200190815260200160002060010160009054906101000a900473ffffffffffffffffffffffffffffffffffffffff166001600084815260200190815260200160002060020160016000858152602001908152602001600020600301604051808473ffffffffffffffffffffffffffffffffffffffff16815260200180602001806020018381038352858181546001816001161561010002031660029004815260200191508054600181600116156101000203166002900480156117ae5780601f10611783576101008083540402835291602001916117ae565b820191906000526020600020905b81548152906001019060200180831161179157829003601f168201915b50508381038252848181546001816001161561010002031660029004815260200191508054600181600116156101000203166002900480156118315780601f1061180657610100808354040283529160200191611831565b820191906000526020600020905b81548152906001019060200180831161181457829003601f168201915b50509550505050505060405180910390a150565b828054600181600116156101000203166002900490600052602060002090601f01602090048101928261187b57600085556118c2565b82601f1061189457805160ff19168380011785556118c2565b828001600101855582156118c2579182015b828111156118c15782518255916020019190600101906118a6565b5b5090506118cf91906118d3565b5090565b5b808211156118ec5760008160009055506001016118d4565b509056fe50617373706f7274206e756d6265722073686f756c64206265207370656369666965644f6e6c79204865616c746820417574686f72697479284465706c6f796572292063616e2063616c6c20746869732066756e6374696f6ea264697066735822122037813b6ff8b3b6a08a296882dee2a187717f229f5a7affc8d05920f56f3dcbdc64736f6c63430007060033",
  "immutableReferences": {},
  "source": "// SPDX-License-Identifier: MIT\npragma solidity ^0.7.6;\n\ncontract HealthPass {\n\n     /*\n     * Digital Health Pass -\n     *\n     * This is a DApp in which a person (Client) needs to first register himself  using his name and Passport number\n     *\n     * Health Authorities owning the DApp can update the vaccination status of the registered users\n     *\n     *Vaccinated users can use this DApp to get HealthPass for the public places\n     *\n     *Thus, we can keep a record of all vaccinated users in cryptographically stored, transparent and immutable blockchain based solution.\n     */\n    \n\n    //State Variables\n    address public healthAuthority;\n    mapping (uint => User) public users;\n    uint public totalNumber = 0;\n    \n    //Structs\n    struct User {\n        uint userId;\n        address client;\n        string name;\n        string passNumber;\n        string vaccineName;\n        bool vaccinated;\n        bool workplacePermitted;\n        bool mallPermitted;\n        bool airportPermitted;\n    }\n\n    //Events\n    event Registered(\n        uint userId,\n        address client,\n        string name,\n        string passNumber\n    );\n\n    event Updated(\n        uint userId,\n        address client,\n        string name,\n        string passNumber,\n        string vaccineName,\n        bool vaccinated\n    );\n\n    event healthPassToWorkplace(\n        address client,\n        string name,\n        string passNumber\n    );\n    event healthPassToMall(\n        address client,\n        string name,\n        string passNumber\n    );\n\n    event healthPassToAirport(\n        address client,\n        string name,\n        string passNumber\n    );\n\n\n    //Modifiers\n    modifier onlyHealthAuthority() {\n        require(msg.sender == healthAuthority , \"Only Health Authority(Deployer) can call this function\");\n        _;\n    }\n\n\n    modifier allFieldsEntered(string memory __name, string memory __passNumber) {\n        bytes memory a = bytes(__name);\n        bytes memory b = bytes(__passNumber);\n        require(a.length != 0, \"Full name should be specified\");\n        require(b.length != 0, \"Passport number should be specified\");\n        _;\n    }\n\n\n    //Constructor\n    constructor() {\n        healthAuthority = msg.sender; //Deployer would be the government health Authority\n    }\n\n    //Functions\n\n    //Register user function\n\n    function registerUser(string memory _name, string memory _passNumber) public allFieldsEntered(_name,_passNumber){\n        for (uint i=0; i<totalNumber; i++) {\n            require(msg.sender != users[i].client);\n        }\n        users[totalNumber] = User(totalNumber,msg.sender,\n            _name,\n            _passNumber,\n            '',\n            false,\n            false,\n            false,\n            false);\n        totalNumber++;\n        emit Registered(totalNumber, msg.sender, _name, _passNumber);\n    }\n\n    //Update User function- It will be called once user gets vaccinated.\n\n    function updateUser(string memory _vaccineName, uint userId) public onlyHealthAuthority{\n        require(bytes(_vaccineName).length > 0, \"Vaccine's name is required\");\n        users[userId].vaccinated = true;\n        users[userId].vaccineName = _vaccineName;\n        emit Updated(userId, users[userId].client, users[userId].name, users[userId].passNumber,_vaccineName, true);\n    }\n\n    //For obtaining passes for the current public places present in the DApp\n    function obtainPassForWorkplace(uint userId) public onlyHealthAuthority{\n        require(users[userId].vaccinated);\n        users[userId].workplacePermitted = true;\n        emit healthPassToWorkplace(users[userId].client, users[userId].name, users[userId].passNumber);\n    }\n\n    function obtainPassForMall(uint userId) public onlyHealthAuthority{\n        require(users[userId].vaccinated);\n        users[userId].mallPermitted = true;\n        emit healthPassToMall(users[userId].client, users[userId].name, users[userId].passNumber);\n    }\n\n    function obtainPassForAirport(uint userId) public onlyHealthAuthority{\n        require(users[userId].vaccinated);\n        users[userId].airportPermitted = true;\n        emit healthPassToAirport(users[userId].client, users[userId].name, users[userId].passNumber);\n    }\n}",
  "sourcePath": "/home/amirreza/Desktop/healthpassdapp/src/contracts/HealthPass.sol",
  "compiler": {
    "name": "solc",
    "version": "0.7.6+commit.7338295f.Emscripten.clang"
  },
  "schemaVersion": "3.3.4",
  "updatedAt": "2021-04-12T14:46:29.786Z",
  "networkType": "ethereum",
  "devdoc": {
    "kind": "dev",
    "methods": {},
    "version": 1
  },
  "userdoc": {
    "kind": "user",
    "methods": {},
    "version": 1
  }
}